{
  "contractName": "Marketplace",
  "abi": [
    {
      "inputs": [],
      "stateMutability": "nonpayable",
      "type": "constructor"
    },
    {
      "anonymous": false,
      "inputs": [
        {
          "indexed": false,
          "internalType": "enum Marketplace.ShippingStatus",
          "name": "status",
          "type": "uint8"
        },
        {
          "indexed": false,
          "internalType": "address",
          "name": "seller",
          "type": "address"
        }
      ],
      "name": "MissionComplete",
      "type": "event"
    },
    {
      "anonymous": false,
      "inputs": [
        {
          "indexed": true,
          "internalType": "address",
          "name": "previousOwner",
          "type": "address"
        },
        {
          "indexed": true,
          "internalType": "address",
          "name": "newOwner",
          "type": "address"
        }
      ],
      "name": "OwnershipTransferred",
      "type": "event"
    },
    {
      "anonymous": false,
      "inputs": [
        {
          "indexed": false,
          "internalType": "enum Marketplace.ShippingStatus",
          "name": "status",
          "type": "uint8"
        }
      ],
      "name": "ProductPayed",
      "type": "event"
    },
    {
      "inputs": [],
      "name": "owner",
      "outputs": [
        {
          "internalType": "address",
          "name": "",
          "type": "address"
        }
      ],
      "stateMutability": "view",
      "type": "function",
      "constant": true
    },
    {
      "inputs": [],
      "name": "renounceOwnership",
      "outputs": [],
      "stateMutability": "nonpayable",
      "type": "function"
    },
    {
      "inputs": [
        {
          "internalType": "address",
          "name": "newOwner",
          "type": "address"
        }
      ],
      "name": "transferOwnership",
      "outputs": [],
      "stateMutability": "nonpayable",
      "type": "function"
    },
    {
      "inputs": [],
      "name": "shipped",
      "outputs": [],
      "stateMutability": "nonpayable",
      "type": "function"
    },
    {
      "inputs": [],
      "name": "delivered",
      "outputs": [],
      "stateMutability": "nonpayable",
      "type": "function"
    },
    {
      "inputs": [],
      "name": "getStatus",
      "outputs": [
        {
          "internalType": "enum Marketplace.ShippingStatus",
          "name": "",
          "type": "uint8"
        }
      ],
      "stateMutability": "view",
      "type": "function",
      "constant": true
    },
    {
      "inputs": [],
      "name": "Status",
      "outputs": [],
      "stateMutability": "payable",
      "type": "function",
      "payable": true
    }
  ],
  "bytecode": "0x608060405234801561001057600080fd5b5061001a3361002c565b6000805460ff60a01b1916905561007c565b600080546001600160a01b038381166001600160a01b0319831681178455604051919092169283917f8be0079c531659141344cd1fd0a4f28419497f9722a3daafe3b4186f6b6457e09190a35050565b6104758061008b6000396000f3fe6080604052600436106100705760003560e01c80638da5cb5b1161004e5780638da5cb5b146100bf578063ba446ae9146100e7578063bbdfbfba146100fc578063f2fde38b1461011157600080fd5b806345f09ce9146100755780634e69d5601461007f578063715018a6146100aa575b600080fd5b61007d610131565b005b34801561008b57600080fd5b506100946101eb565b6040516100a191906103d5565b60405180910390f35b3480156100b657600080fd5b5061007d610206565b3480156100cb57600080fd5b506000546040516001600160a01b0390911681526020016100a1565b3480156100f357600080fd5b5061007d61021a565b34801561010857600080fd5b5061007d610237565b34801561011d57600080fd5b5061007d61012c3660046103e9565b610290565b6000546001600160a01b0316330361014857600080fd5b3466470de4df820000146101a35760405162461bcd60e51b815260206004820152601960248201527f546f6b656e20616d6f756e74206d75737420626520302e30320000000000000060448201526064015b60405180910390fd5b7f972ef6c532c93c509687b3f14cb099159892de7818aa2d426cc95e0ef9c46e7f600060149054906101000a900460ff166040516101e191906103d5565b60405180910390a1565b60006101f5610309565b50600054600160a01b900460ff1690565b61020e610309565b6102186000610363565b565b610222610309565b6000805460ff60a01b1916600160a01b179055565b61023f610309565b6000805460ff60a01b1916600160a11b17908190556040517fc9c7f9c4d650d41253a5a8aca6c8261a6b8411de57ee65c5a668d8b39686e2f3916101e191600160a01b90910460ff16903390610419565b610298610309565b6001600160a01b0381166102fd5760405162461bcd60e51b815260206004820152602660248201527f4f776e61626c653a206e6577206f776e657220697320746865207a65726f206160448201526564647265737360d01b606482015260840161019a565b61030681610363565b50565b6000546001600160a01b031633146102185760405162461bcd60e51b815260206004820181905260248201527f4f776e61626c653a2063616c6c6572206973206e6f7420746865206f776e6572604482015260640161019a565b600080546001600160a01b038381166001600160a01b0319831681178455604051919092169283917f8be0079c531659141344cd1fd0a4f28419497f9722a3daafe3b4186f6b6457e09190a35050565b600381106103d157634e487b7160e01b600052602160045260246000fd5b9052565b602081016103e382846103b3565b92915050565b6000602082840312156103fb57600080fd5b81356001600160a01b038116811461041257600080fd5b9392505050565b6040810161042782856103b3565b6001600160a01b03929092166020919091015291905056fea2646970667358221220a0be938b9e19dca58d7c866ab6917ea3b7c53567b3cb4181887886fde46e9d5064736f6c63430008110033",
  "immutableReferences": {},
  "source": "// SPDX-License-Identifier: GPL-3.0\r\n\r\npragma solidity >=0.7.0 <0.9.0;\r\n\r\nimport \"@openzeppelin/contracts/access/Ownable.sol\";\r\n\r\ncontract Marketplace is Ownable {\r\n\r\n    enum ShippingStatus {\r\n        pending,\r\n        shipped,\r\n        delivered\r\n    }\r\n\r\n    modifier onlyCustomer() {\r\n        require(msg.sender != owner());\r\n        _;\r\n    }\r\n\r\n    ShippingStatus status;\r\n    \r\n    event MissionComplete(ShippingStatus status, address seller);\r\n    event ProductPayed(ShippingStatus status);\r\n\r\n    constructor() {\r\n        status = ShippingStatus.pending;\r\n    }\r\n\r\n    function shipped() public onlyOwner {\r\n        status = ShippingStatus.shipped;\r\n    }\r\n\r\n    function delivered() public onlyOwner {\r\n        status = ShippingStatus.delivered;\r\n        emit MissionComplete(status, msg.sender);\r\n    }\r\n\r\n    function getStatus() public view onlyOwner returns(ShippingStatus) {\r\n        return status;\r\n    }\r\n\r\n    function Status() public payable onlyCustomer {\r\n        require(msg.value == 0.02 ether, \"Token amount must be 0.02\");\r\n        emit ProductPayed(status);\r\n    }\r\n}",
  "sourcePath": "D:\\OneDrive - Ynov\\Cours\\Master 1\\Blockchain\\eval_sc\\truffle_env\\contracts\\Marketplace.sol",
  "compiler": {
    "name": "solc",
    "version": "0.8.17+commit.8df45f5f.Emscripten.clang"
  },
  "schemaVersion": "3.4.10",
  "updatedAt": "2022-10-28T14:14:23.396Z",
  "networkType": "ethereum",
  "devdoc": {
    "kind": "dev",
    "methods": {
      "owner()": {
        "details": "Returns the address of the current owner."
      },
      "renounceOwnership()": {
        "details": "Leaves the contract without owner. It will not be possible to call `onlyOwner` functions anymore. Can only be called by the current owner. NOTE: Renouncing ownership will leave the contract without an owner, thereby removing any functionality that is only available to the owner."
      },
      "transferOwnership(address)": {
        "details": "Transfers ownership of the contract to a new account (`newOwner`). Can only be called by the current owner."
      }
    },
    "version": 1
  },
  "userdoc": {
    "kind": "user",
    "methods": {},
    "version": 1
  }
}